:0200000460009A
:100000004643464200000156000000000103030081
:1000100000000000000000000000000000000000E0
:1000200000000000000000000000000000000000D0
:1000300000000000000000000000000000000000C0
:1000400000000000010408000000000000000000A3
:100050000000800000000000000000000000000020
:100060000000000000000000000000000000000090
:100070000000000000000000000000000000000080
:10008000EB04180A063204260000000000000000FD
:10009000050404240000000000000000000000002F
:1000A0000000000000000000000000000000000050
:1000B0000604000000000000000000000000000036
:1000C0000000000000000000000000000000000030
:1000D00020041808000000000000000000000000DC
:1000E0000000000000000000000000000000000010
:1000F0000000000000000000000000000000000000
:10010000D8041808000000000000000000000000F3
:100110000204180804200000000000000000000095
:1001200000000000000000000000000000000000CF
:10013000600400000000000000000000000000005B
:1001400000000000000000000000000000000000AF
:10015000000000000000000000000000000000009F
:10016000000000000000000000000000000000008F
:10017000000000000000000000000000000000007F
:10018000000000000000000000000000000000006F
:10019000000000000000000000000000000000005F
:1001A000000000000000000000000000000000004F
:1001B000000000000000000000000000000000003F
:1001C000000100000010000001000000000000001D
:1001D000000001000000000000000000000000001E
:1001E000000000000000000000000000000000000F
:1001F00000000000000000000000000000000000FF
:10020000FFFFFFFFFFFFFFFFFFFFFFFFFFFFFFFFFE
:10021000FFFFFFFFFFFFFFFFFFFFFFFFFFFFFFFFEE
:10100000D100204000180060000000000000000037
:1010100020100060001000600000000000000000D0
:0C1020000000006000001F000000000045
:10102C00FFFFFFFFFFFFFFFFFFFFFFFF7EFFFFFF45
:1014000000040020E9180060EB180060EB18006091
:10141000EB180060EB180060EB180060EB18006040
:10142000EB180060EB180060EB180060FF690060CB
:10143000EB180060EB180060EB180060D57D0060D1
:10144000EB180060EB180060EB180060EB18006010
:10145000EB180060EB180060EB180060EB18006000
:10146000EB180060EB180060EB180060EB180060F0
:10147000EB180060EB180060EB180060EB180060E0
:10148000EB180060EB180060EB180060EB180060D0
:10149000EB180060EB180060EB180060EB180060C0
:1014A000EB180060EB180060EB180060EB180060B0
:1014B000EB180060EB180060EB180060EB180060A0
:1014C000EB180060EB180060EB180060EB18006090
:1014D000EB180060EB180060EB180060EB18006080
:1014E000EB180060EB180060EB180060EB18006070
:1014F000EB180060EB180060EB180060EB18006060
:10150000EB180060EB180060EB180060EB1800604F
:10151000EB180060EB180060EB180060EB1800603F
:10152000EB180060EB180060EB180060EB1800602F
:10153000EB180060EB180060EB180060EB1800601F
:10154000EB180060EB180060EB180060EB1800600F
:10155000EB180060EB180060EB180060EB180060FF
:10156000EB180060EB180060EB180060EB180060EF
:10157000EB180060EB180060EB180060EB180060DF
:10158000EB180060EB180060EB180060EB180060CF
:10159000EB180060EB180060EB180060EB180060BF
:1015A000EB180060EB180060EB180060EB180060AF
:1015B000EB180060EB180060EB180060EB1800609F
:1015C000EB180060EB180060EB180060EB1800608F
:1015D000EB180060EB180060EB180060EB1800607F
:1015E000EB180060EB180060EB180060EB1800606F
:1015F000EB180060EB180060EB180060EB1800605F
:10160000EB180060857F0060EB180060EB1800604D
:10161000EB180060EB180060EB180060EB1800603E
:10162000EB180060EB180060EB180060EB1800602E
:10163000EB180060EB180060EB180060EB1800601E
:10164000EB180060EB180060EB180060EB1800600E
:10165000EB180060EB180060EB180060EB180060FE
:10166000EB180060EB180060EB180060EB180060EE
:10167000EB180060EB180060EB180060EB180060DE
:10168000EB180060EB180060EB180060EB180060CE
:10169000EB180060EB180060EB180060EB180060BE
:1016A000EB180060EB180060EB180060EB180060AE
:1016B000EB180060EB180060EB180060EB1800609E
:1016C000000000000000000000000000000000001A
:1016D000000000000000000000000000000000000A
:1016E00000000000000000000000000000000000FA
:1016F00000000000000000000000000000000000EA
:1017000000000000000000000000000000000000D9
:1017100000000000000000000000000000000000C9
:1017200000000000000000000000000000000000B9
:1017300000000000000000000000000000000000A9
:101740000000000000000000000000000000000099
:101750000000000000000000000000000000000089
:101760000000000000000000000000000000000079
:101770000000000000000000000000000000000069
:101780000000000000000000000000000000000059
:101790000000000000000000000000000000000049
:1017A0000000000000000000000000000000000039
:1017B0000000000000000000000000000000000029
:1017C0000000000000000000000000000000000019
:1017D0000000000000000000000000000000000009
:1017E00000000000000000000000000000000000F9
:1017F00000000000000000000000000000000000E9
:0818000000102020F1780060C7
:1018100072B6264880F30888254880F30988254851
:1018200025490860022080F31488BFF36F8F04F00D
:1018300083FE04F0C4FD4FF0553020491B4A91420D
:101840003CBF41F8040BFAE71D49194A91423CBFDD
:1018500041F8040BFAE71B491B4A1C4B9A423EBF56
:1018600051F8040B42F8040BF8E700201849194A14
:1018700091423CBF41F8040BFAE704F09BFE05F0EF
:1018800041FC154C154DAC4203DA54F8041B884753
:10189000F9E703F0D7FC124C124DAC4203DA54F8CE
:1018A000041B8847F9E704F083BE00000004002011
:1018B000000C00200014006008ED00E00000002093
:1018C000000400205C9E0060000C0020340D00200D
:1018D0000010002084220020081800600818006012
:1018E000081800600818006092E700F000F8FEE7B2
:1018F0002DE9F04FC1F80CD0D0F80CD0BDE8F08F36
:10190000002383F311882846A047002005F04EF8F5
:10191000FEE704F0A5FF00DFFEE7000053B94AB977
:10192000002908BF00281CBF4FF0FF314FF0FF30E7
:1019300000F00CB8ADF1080C6DE904CE07F042FDE3
:10194000DDF804E0DDE9022304B07047704700BF12
:1019500008B5062000F068FE012005F001FC00BF7C
:1019600000B50A4C2668054685B01C46F06852B1A1
:10197000074B0091CDE9013206492B46224600F083
:1019800021F8FFF7E5FF044B1A46F2E7000C0020B0
:10199000D89D0060E89D0060E49D006008B5134696
:1019A0000022FFF7DDFF00BF0CB400B583B004AB2D
:1019B00053F8042B019300F03FFA03B05DF804EBF9
:1019C00002B070470EB410B583B005AB064C53F8A7
:1019D000042B01930146206800F02EFA03B0BDE805
:1019E000104003B0704700BF000C0020024B0146BE
:1019F000186800F07BB900BF000C0020024B0146C4
:101A0000186800F01DB900BF000C0020032A70B454
:101A100012D940EA0105AD0704460B4620D119460C
:101A2000204653F8045B54F8046BAE4218D1043AD4
:101A3000032A20461946F2D8541E72B103780A7858
:101A40009A4208BF241806D00CE010F8013F11F8A4
:101A5000012F934206D1A042F7D1002070BC7047FD
:101A6000541EEBE7981A70BC704700BF844641EAE9
:101A7000000313F003036DD1403A41D351F8043B06
:101A800040F8043B51F8043B40F8043B51F8043B58
:101A900040F8043B51F8043B40F8043B51F8043B48
:101AA00040F8043B51F8043B40F8043B51F8043B38
:101AB00040F8043B51F8043B40F8043B51F8043B28
:101AC00040F8043B51F8043B40F8043B51F8043B18
:101AD00040F8043B51F8043B40F8043B51F8043B08
:101AE00040F8043B51F8043B40F8043B51F8043BF8
:101AF00040F8043B51F8043B40F8043B403ABDD267
:101B0000303211D351F8043B40F8043B51F8043B08
:101B100040F8043B51F8043B40F8043B51F8043BC7
:101B200040F8043B103AEDD20C3205D351F8043B97
:101B300040F8043B043AF9D2043208D0D2071CBF63
:101B400011F8013B00F8013B01D30B88038060468C
:101B5000704700BF082A13D38B078DD010F0030302
:101B60008AD0C3F10403D21ADB071CBF11F8013B72
:101B700000F8013B80D331F8023B20F8023B7BE7C1
:101B8000043AD9D3013A11F8013B00F8013BF9D2EC
:101B90000B7803704B7843708B7883706046704786
:101BA000F0B4860746D0541E002A3CD0CAB2034681
:101BB00002E014F1FF3436D303F8012B9D07F8D16E
:101BC000032C29D9CDB245EA05250F2C45EA054558
:101BD00033D9A4F11006360903F1200707EB0617E5
:101BE00003F1100242E9045542E902551032BA42AB
:101BF000F8D1721C14F00C0F03EB021204F00F0664
:101C000013D0331F23F003030433134442F8045B5F
:101C10009342FBD106F003042CB1C9B21C4403F873
:101C2000011B9C42FBD1F0BC704734461346002C8C
:101C3000F3D1F8E714460346C2E71A462646E0E722
:101C400000293CD038B551F8043C0C1F002BB8BF1C
:101C5000E418054601F05CFB234B1A682AB1A24246
:101C60000DD921686018824223D0626028461C602A
:101C7000BDE8384001F052BBA34203D81A4653686E
:101C8000002BF9D111685018A04219D024D821682E
:101C90006018834206D0636054602846BDE838402F
:101CA00001F03CBBD3E90003014463602160546050
:101CB000F3E7D2E90002014462602160D6E7704791
:101CC00020680144501883421160E6D1D3E9000333
:101CD000014453601160E0E70C232B602846BDE807
:101CE000384001F01BBB00BF00100020F8B5CD1C30
:101CF00025F0030508350C2D38BF0C25002D0646B0
:101D000033DBA94231D82A4F01F002FB3A6852B1C5
:101D100013685B1B04D43FE023685B1B29D5224674
:101D20005468002CF8D1796800293BD02946304608
:101D300005F0FBF9431C28D0C41C24F00304A04286
:101D400005D0211A304605F0F0F901301DD025608C
:101D5000304601F0E3FA04F10B0020F00700231DE8
:101D6000C21A01D01B1AA350F8BD0C223260002009
:101D7000F8BD0B2B05D8A242636811D05360E7E78A
:101D8000144623601C442560E2E70C233046336090
:101D900001F0C4FA0020F8BD0B2BF1D853681446AB
:101DA0003B60D5E7304605F0C0F97860BEE700BF7C
:101DB000001000209368013B002B93600FDA10B4F1
:101DC0009469A34208DB0A2906D01368581C1060E6
:101DD0001970084610BC704710BC00F05DBC136859
:101DE000581C106019700846704700BF9BB1F8B5C9
:101DF00013440F4606465D1E541E01E0AC4208D057
:101E00003A4614F8011F3046FFF7D4FF431CF5D1C2
:101E1000F8BD0020F8BD0020704700BF936810B5E2
:101E2000144613B95360184610BD00F059FF002343
:101E3000C4E9013310BD00BF2DE9F04F9FB08B46C0
:101E400090461C46039018B18369002B00F0C580B2
:101E5000B34B9B4500F0C780B24B9B4500F0C78059
:101E6000B14B9B4504BF039BD3F80CB0DBF8643047
:101E7000BBF80C20DB0702D4970540F1438116071D
:101E800040F12781DBF81030002B00F02281302355
:101E90008DF8323098F800300594002120220B9103
:101EA000A24E8DF831200127002B00F08580252BD4
:101EB00000F00D81454603E0252B00F09C8025466F
:101EC0006B786C1C002BF7D1B4EB080A74D0424637
:101ED000534659460398FFF789FF01306CD00B9B9E
:101EE0006A7853440B93002A66D000234FF0FF32E8
:101EF00001340693CDE908338DF85B301C930792CB
:101F000005E0069A07FA03F313432C460693254689
:101F1000052215F8011B304601F042F9AA46831B41
:101F20000028EED1069BD80644BF20228DF85B2006
:101F30001907217844BF2B228DF85B202A295FD115
:101F4000059A1168043200290592C0F29580099122
:101F50006178A51C2E296CD0754C0322204601F017
:101F60001FF900287ED0001B069B402404FA00F0D5
:101F70000343069305F1010829786E488DF8301067
:101F8000062201F00DF900287CD06B4B002B6CD0A1
:101F900005AB00935A46694B039806A9AFF300803E
:101FA0008146B9F1FF3F07D00B9B4B440B9398F848
:101FB0000030002B7FF47BAFDBF8643013F0010FAF
:101FC000BBF80C3002D19A0540F1A3805B0600F10A
:101FD00093800B981FB0BDE8F08F00F069FD504B67
:101FE0009B457FF439AF039BD3F804B03EE7039BD6
:101FF000D3F808B03AE7B4EB080A3FF476AF66E7E7
:10200000A1F13002092A88BFA246A3D8099B01E0AA
:102010002C460135297803EB830302EB4303A1F13E
:102020003002092AAA46F3D92E2904F102050993A0
:1020300092D19AF801102A292ED1059B9AF8021004
:102040001A6807920433002A05930AF103050AF17E
:10205000020337DB364C032220469A4601F0A0F8F3
:10206000002880D1A846554686E7059B073323F014
:1020700007030833059397E7494243F002030991A8
:10208000069365E705AB00935A462C4B039806A9C7
:1020900000F0F8F8814684E7A1F130020023092A14
:1020A000079301D92BE05546697803EB830302EBD4
:1020B0004303A1F13002092A05F1010AF3D90235DF
:1020C000079349E74FF0FF329A46079244E74446A8
:1020D0000BE75946039800F03FFB00283FF4D7AECA
:1020E000DBF86430DD0707D4BBF80C309C0503D463
:1020F000DBF8580000F0DAFF4FF0FF306AE7AA463D
:10210000013529E7DBF8580000F0C8FFBBF80C20C8
:10211000B5E6DBF8580000F0C9FFBBF80C3055E716
:10212000C0960060A096006080960060189E0060D7
:10213000209E0060249E006000000000ED1D0060F5
:1021400010B4044C13460A460146206810BCFFF741
:1021500073BE00BF000C00202DE9F0470C469146ED
:102160000A698968DDF820808A42B8BF0A46C9F842
:10217000002094F8431006461F4611B10132C9F8F9
:102180000020236899065CD5D9F800200232C9F8EE
:102190000020236813F0060F19461DD1E1688A1A42
:1021A000002AD8BF194617DD04F1190A002505E0F9
:1021B000E368D9F800209B1AAB420CDD012352469C
:1021C00039463046C047013005F10105F0D14FF0E6
:1021D000FF30BDE8F087216894F84330003318BF22
:1021E00001238A060AD5E1185A1C302081F84300E1
:1021F000224494F8451082F84310023304F143025C
:1022000039463046C0470130E1D02368A2682169D1
:1022100003F00603042B1DD08A4226DD4FF000098F
:10222000521A91441A34002501E04D451DDA01236C
:10223000224639463046C047013005F10105F4D148
:10224000C5E713F0060F13D094F84330003318BFDE
:102250000123D3E7D9F80000E3688A42A3EB000327
:1022600023EAE379DCDC002BDCDC0020BDE8F0872E
:10227000E168D9F800208A1A002AD8BF194693DCF1
:10228000AAE700BF2DE9F0430C46097E85B06E2910
:10229000064617460C98984604F1430E6DD039D97E
:1022A000732900F0F68044D9752900F0048178295B
:1022B00040F0118178232268DFF858C284F8453055
:1022C0000168150651F8043B016040F1A180D10777
:1022D00044BF42F020022260002B00F093801022C5
:1022E000002184F843106068A0600028C0F2C88014
:1022F000216821F004012160002B40F0A380002818
:1023000040F0C0807546082A00F0AC80AEEB0503B3
:10231000236141E0632900F0E5801AD8002938D014
:10232000582940F0D88084F845102268DFF8E8C1C9
:10233000C6E76F2900F0BF80702940F0CC8022688A
:10234000DFF8D0C142F020027823226084F84530C3
:10235000B6E7642902D0692940F0BD80226803688D
:10236000110603F1040557D5196805600B460029CD
:1023700059DBDFF8A4C10A22B5E703682268616966
:102380001D1D056015061B6802D4500600F1BD80B6
:102390001960002375462361CDF800803B4603AAEF
:1023A00021463046FFF7D8FE013020D02A46236967
:1023B00039463046C047013019D022680398E36897
:1023C000920719D51A1A002A16DD04F119090025F9
:1023D00004E0E36803981A1AAA420DDD01234A4675
:1023E00039463046C047013005F10105F1D14FF0C3
:1023F000FF3005B0BDE8F0839842B8BF184605B07D
:10240000BDE8F083226822F020022260102267E7F4
:10241000500648BF9BB25AE75106A5D5B3F9003024
:1024200005601946A3E76168A1602D200029C3F16A
:10243000000384F8430002DB22F004022260DFF88C
:10244000D8C00A22754600E00B46B3FBF2F102FB4E
:10245000113093421CF8000005F8010DF4D2082A4F
:102460007FF454AF2368DB077FF550AF62682369C0
:102470009A423FF74BAF302305F8013C013D45E759
:10248000002BDFD19CF8003084F8423004F1420583
:1024900039E703686268191D01601D68002128463C
:1024A00000F07EFE002832D0401B606020610023D7
:1024B00084F8433070E72268036812F0800F03F15C
:1024C00004051AD01B6805606F290CBF08220A2278
:1024D000DFF844C004E7012384F84210236104F1CB
:1024E0004205E4E703681A68191D0123016004F13D
:1024F000420584F842202361D9E712F0400F0DBF56
:102500001B6805601B880560DEE7198041E760688D
:10251000CCE700BF409E00602C9E006010B580217B
:102520000446FFF7E3FB606440B1031F00227C30E8
:1025300043F8042F8342FBD1002010BD4FF0FF3041
:1025400010BD00BF436C0BB100207047E6E700BF31
:102550001F2970B5054608D8436C16460C464BB18A
:1025600053F8240043F8246070BD162202604FF037
:10257000FF3070BDFFF7D2FF08B96B6CF0E74FF08A
:10258000FF3070BD1F2938B521D8426C05460C4676
:102590006AB152F8213053B1012B16D0591C10D01A
:1025A0000025204642F824509847284638BD284642
:1025B00000F070F8224601462846BDE8384000F099
:1025C00055B816230360012038BD002038BD1623FE
:1025D00003604FF0FF3038BD1F2921D838B5436C58
:1025E00005460C4683B153F8242003EB84034AB11B
:1025F000511C10D0012A0CD0002520461D609047A8
:10260000284638BD012038BDFFF788FF28B96B6C1C
:10261000E9E7032038BD022038BD4FF0FF3038BD58
:102620004FF0FF30704700BF024B01461868FFF7BC
:10263000A9BF00BF000C0020024B0A4601461868E3
:10264000FFF786BF000C0020034B1868436C0BB1EA
:102650000020704762E700BF000C0020024B0146DB
:102660001868FFF7B9BF00BF000C002038B50B4653
:10267000074C0546114618460023236004F078FDF8
:10268000431C00D038BD2368002BFBD02B6038BD25
:102690008022002004F074BDF8B50D4614460646AD
:1026A00008B1836943B3254B9C422AD0244B9C42FA
:1026B00029D0244B9C4208BFF468A389A269A26078
:1026C0001A0722D5236903B322686169D31AEDB2D0
:1026D00099422F4629DD0133A168501C0139A160C0
:1026E0002060157062699A4216D0A389DB0701D574
:1026F0000A2D11D03846F8BD00F0DAF90F4B9C4294
:10270000D4D17468D9E7B468D7E72146304600F0E1
:1027100023F838B92369D7E72146304600F032F96B
:102720000028E7D04FF0FF37E4E72146304600F0BD
:1027300029F90028F6D122680123CDE7C096006070
:10274000A096006080960060024B0A460146186819
:10275000FFF7A2BF000C00203B4B70B51D6806467A
:102760000C460DB1AB69DBB1384B9C421ED0384BE7
:102770009C424AD0374B9C4208BFEC68B4F90C200D
:1027800093B2190718D5206908B313F001022CD0B1
:10279000636900225B42A361A26060B3002070BD48
:1027A000284600F085F9294B9C42E0D16C68B4F9C9
:1027B0000C2093B21907E6D4DD063CD5580726D481
:1027C000206942F00803A3819BB20028DDD103F405
:1027D0002072B2F5007FD8D03046214600F096FC3A
:1027E000A389206913F00102D2D1990758BF626909
:1027F000A2600028D2D1B4F90C301A06CFD543F02C
:102800004003A3814FF0FF3070BDAC68B6E7616B49
:1028100051B104F14403994204D03046FFF710FA55
:10282000B4F90C200023636300232069636022F065
:1028300024022060C5E742F04002092333604FF0D4
:10284000FF30A28170BD00BF000C0020C096006068
:10285000A0960060809600608B891A072DE9F041F0
:102860000C46804641D44A68002A59DDE66A002EAB
:1028700053D00022D8F80050216AC8F8002013F481
:10288000805251D101234046B047431C5FD0A389F9
:10289000E66A216A5F0705D56268636B801A0BB12F
:1028A000236CC01A024600234046B047461C45D15F
:1028B000D8F80030B4F90C20002B55D01D2B01D0D6
:1028C000162B5AD123690022C4E90032616BC8F883
:1028D000005011B304F14403994202D04046FFF77F
:1028E000AFF900206063BDE8F0810E69AEB10D68FC
:1028F0000E6099070CBF63690023AD1BA3600AE05B
:102900002B463246A76A216A4046B8470028A5EB05
:10291000000506440ADD002DF2DC0020BDE8F08150
:102920000A6C002AA2DCF8E7606DB3E7A38943F0E4
:102930004003A3814FF0FF30BDE8F0812269A389F5
:10294000226000226260DA04C0D56065BEE7D8F874
:102950000030002B9BD01D2B0CD0162B0AD0A38946
:1029600043F04003A381D9E72169C4E90013D304EC
:10297000ACD5EAE7C8F80050CFE742F04002A281A8
:10298000CCE700BF38B50B691BB30C46054608B150
:1029900083691BB3184B9C421ED0184B9C4220D01D
:1029A000174B9C4208BFEC68B4F90C308BB1626ED7
:1029B000D00701D4990516D528462146FFF74CFFCC
:1029C000636EDA07054602D4A3899B050FD5284616
:1029D00038BD0025284638BD6C68E5E700F068F88A
:1029E000D8E7AC68E0E7A06D00F058FBE4E7A06D25
:1029F00000F05CFBEBE700BFC0960060A0960060B3
:102A00008096006020B1054B01461868FFF7BABFF9
:102A1000034B0449186800F00DBB00BF000C0020F8
:102A20007C96006085290060014900F003BB00BF6F
:102A30008529006008B5436EDA0702D483899B05B7
:102A400001D5002008BD806D00F028FB002008BDE6
:102A500008B5436EDA0702D483899B0501D50020AF
:102A600008BD806D00F022FB002008BD70B54A1E35
:102A7000682505FB02F50E4605F17401FFF736F9EE
:102A8000044640B100210C30666005F16802216007
:102A9000A060FFF785F8204670BD00BF024B0349D8
:102AA000186800F0C7BA00BF7C96006085290060F6
:102AB0002DE9F84F05463A4800F0F0FAAB69002BD3
:102AC00068D1384A2B6512683749A962AA42C5E91C
:102AD000123304BF0123AB61284600F073F868602D
:102AE000284600F06FF8A860284600F06BF86E6882
:102AF000E86000240423F3607466C6E90044B4600F
:102B0000C6E90444B461214606F15C000822FFF7DF
:102B100047F8DFF8A0B0AF68DFF89CA0DFF89C9022
:102B2000DFF89C80214BC6F83080C6E9086BC6E907
:102B30000AA92146FB607C66C7E90044BC60C7E97E
:102B40000444BC6107F15C000822FFF729F8EE6835
:102B5000174BC7F83080C7E9087BC7E90AA92146A7
:102B6000F3607466C6E90044B460C6E90444B46125
:102B700006F15C000822FFF713F80123C6E9086B91
:102B8000C6E90AA9C6F830800548AB61BDE8F84F30
:102B900000F08CBA0248BDE8F84F00F087BA00BFD9
:102BA000682200207C960060292A0060090001004C
:102BB00012000200753300609D330060DD33006059
:102BC000FD33006070B50646244800F067FA244BD8
:102BD0001D68AB697BB34835D5E90134013B05D5A8
:102BE00025E0013B5A1C04F1680420D0B4F90C2004
:102BF000002AF6D100251B4BE36004F158006566FE
:102C000000F044FA154800F051FA2560C4E9015576
:102C1000C4E90455A5612946082204F15C00FEF7C9
:102C2000BFFFC4E90D55C4E91255204670BD2C689C
:102C30002CB12546D0E72846FFF73AFFCBE7042121
:102C40003046FFF713FF044628600028F1D10348FF
:102C500000F02CFA0C233360E7E700BF7C22002051
:102C60007C9600600100FFFF014800F017BA00BF2A
:102C70007C220020014800F019BA00BF7C2200200D
:102C8000014800F00BBA00BF68220020014800F0A4
:102C90000DBA00BF6822002008B5054800F0FEF913
:102CA000044B05491868BDE8084000F09DB900BF15
:102CB0007C220020000C0020352A006008B5054B5E
:102CC0000549186800F090F90448BDE8084000F094
:102CD000EDB900BF000C0020512A00607C220020CA
:102CE0009368002B00F002812DE9F04FB1F90C3010
:102CF0009BB20C46190783B08246904635D52269AF
:102D00009AB313F00202D8F800603DD00027D4F83F
:102D100028B0D4F820C0DFF8CC923D464D452B4674
:102D20003A4628BF4B4661465046D5B1D8470028A1
:102D300040F3D280D8F808301B1A07442D1AC8F87F
:102D40000830002B00F0B780D4F820C0D4F828B0A9
:102D50004D452B463A4628BF4B4661465046002D0E
:102D6000E4D1D6E900750836D8E721465046FFF78A
:102D7000F3FC002840F03081B4F90C30D8F8006042
:102D80009BB213F00202C1D113F0010940F0B080F0
:102D9000A76820684D46002D54D09A0540F1BC80AC
:102DA000AF42BB4600F2E78013F4906F2FD0D4E916
:102DB000041707EB4707A0EB010B07EBD777681C5D
:102DC0007F105844B8423A4684BF07463A465B05EE
:102DD00040F1E98011465046FEF788FF002800F0D8
:102DE000F5805A4621690190FEF740FEA289019BB9
:102DF00022F4906242F08002A281A7EB0B0203EB67
:102E00000B00676123612060A2602F46AB465A46E3
:102E1000494600F015FAA2682368D21B5B442F468E
:102E2000A26023600025D8F80830DB1BB944C8F83D
:102E30000830002B3FD0B4F90C30A76820689BB253
:102E4000002DAAD1D6E900950836A4E70BF10803B6
:102E500053E902679B460833002FF9D03A460A210E
:102E6000304600F09DF9002853D00130A0EB060950
:102E70004B46D4E904122068BB4228BF3B46884237
:102E800003D9A5681544AB4219DC9A427DDC134690
:102E9000A56A216A32465046A847051E1CDDB9EBDB
:102EA00005096BD00120D8F808305B1B2E447F1B2E
:102EB000C8F8083013BB002003B0BDE8F08F3146DE
:102EC0002A4600F0BDF923682B4423602146504672
:102ED000FFF758FD0028E2D0B4F90C3043F040036E
:102EE0004FF0FF30A38103B0BDE8F08F00207047A2
:102EF00033469146104617464E469B46002FA5D0B6
:102F00000028B5D13A460A21304600F049F9002898
:102F1000ABD17B1C9946ACE72369834215D3616929
:102F2000A94212D82E4BA76A9D4294BF2B466FF040
:102F300000434A4693FBF1F3504601FB03F3216A39
:102F4000B847071EC8DDED1B6DE7AF4228BF2F460F
:102F50003A46494600F074F9A3682268DB1B3A44FC
:102F6000A3602260002BEED121465046FFF70AFDF8
:102F70000028E8D0B0E72F46AB4648E72146504648
:102F8000FFF700FD00288ED0A6E71A4631460193D0
:102F900000F056F9019BA1682268C91A1A44A16081
:102FA00022601D467BE7504600F0BEF9034600282C
:102FB0007FF423AF21695046FEF742FEB4F90C308E
:102FC0000C2223F08003CAF8002087E70C23CAF8FC
:102FD0000030B4F90C3081E74FF0FF306CE700BFF0
:102FE000FEFFFF7F00FCFF7F2DE9F04110F1480755
:102FF0001BD088460026D7E90154013D0FD4A38990
:10300000012B05F1FF3506D9B4F90E300133204606
:1030100001D0C04706436B1C04F16804EFD13F6840
:10302000002FE8D13046BDE8F0813E463046BDE88D
:10303000F08100BF2DE9F84310F148071FD0884602
:1030400006464FF00009D7E90154013D11D4A38988
:10305000012B05F1FF3508D9B4F90E3001332146B3
:10306000304602D0C04749EA00096B1C04F16804ED
:10307000EDD13F68002FE6D14846BDE8F883B94658
:103080004846BDE8F88300BF704700BF704700BFE7
:10309000704700BF704700BF704700BF704700BF58
:1030A0000120704701207047704700BF704700BF84
:1030B00070B50C46B1F90E10002996B016461D46A3
:1030C00013DB6A4604F03EF800280EDB019A02F496
:1030D0007042A2F50052B2FA82F252094FF48063B4
:1030E00000202A60336016B070BDA38900221B0641
:1030F0002A6004D540230020336016B070BD4FF421
:1031000080630020336016B070BD00BF8A899207CB
:103110000B4606D501F1470201211A60C3E90421DB
:10312000704770B582B001AB6A460C460646FFF7A1
:10313000BFFF009905463046FEF7D8FDB4F90C30C4
:1031400070B11649B162019A0099206043F0800382
:10315000A381C4E904018AB92B43A38102B070BDE5
:103160009A05FBD423F0030304F1470243F0020362
:103170000121A3812260C4E90421EFE73046B4F9BC
:103180000E1003F0EBFF10B9B4F90C30E4E7A3899B
:1031900023F0030343F001031BB2DDE7292A00609B
:1031A00001F0FF01102A2BDB10F0070F08D010F8F8
:1031B000013B013A8B422DD010F0070F42B3F6D1FC
:1031C000F0B441EA012141EA014122F007047FF015
:1031D00000070023F0E80256083C85EA010586EA6C
:1031E000010685FA47F5A3FA87F586FA47F6A5FAA8
:1031F00087F68EB9EED1F0BC01F0FF0102F00702B4
:1032000032B110F8013B013A83EA010313B1F8D15E
:103210000020704701387047002D06BF354603383F
:10322000073815F0010F07D1013015F4807F02BF78
:10323000013015F4C03F0130F0BC0138704700BFC9
:103240008842F0B40DD98B1883420AD9841832B160
:10325000224613F8014D02F8014D9942F9D1F0BC14
:1032600070470F2A0ED80346541E002AF7D00134A7
:103270000C44013B11F8012B03F8012FA142F9D1B5
:10328000F0BC704740EA01039B073BD1A2F1100755
:103290003F0901F1200606EB071601F1100300F1CA
:1032A000100453F8105C44F8105C53F80C5C44F8BC
:1032B0000C5C53F8085C44F8085C53F8045C44F870
:1032C000045C1033B34204F11004EAD17B1C1B01EF
:1032D00012F00C0F194402F00F05034415D0043D01
:1032E000AD0803EB850C1C1F0E4656F8047B44F812
:1032F000047F6445F9D10135AD002B44294402F027
:103300000302B1E7541E0346B1E72A46ACE700BF0B
:103310000148FFF7C3BE00BF6C2200200148FFF741
:10332000C5BE00BF6C22002009B3F8B51446CAB16F
:1033300006460D4600F066F8A04202D32F463846F6
:10334000F8BD21463046FEF7D1FC07460028F6D0EE
:1033500022462946FEF78AFB30462946FEF770FCD6
:103360003846F8BD2746FEF76BFC3846F8BD1146D7
:10337000FEF7BCBC10B50C46B1F90E1003F0CAFE46
:10338000002803DB636D0344636510BDA38923F448
:103390008053A38110BD00BF002070472DE9F0418C
:1033A0001646B1F90C201F46D3050C460546B1F967
:1033B0000E1009D422F48052A2813B4632462846A0
:1033C000BDE8F04103F0ADBE0022022303F0A7FEEA
:1033D000B4F90C20B4F90E10ECE700BF10B50C46A0
:1033E000B1F90E1003F09BFEA389421C0EBF23F41B
:1033F000805343F480536065A38110BDB1F90E1072
:1034000003F091BE51F8043C181F002BBCBF0B58B1
:10341000C018704710B5074C01F076FD2046062213
:103420000D2104F0FDFA20460122BDE810400D21D7
:1034300004F0E8BA00400042044A506842F6DF61F6
:1034400053681B1A8B42FBD9704700BF001000E085
:1034500002280DD80E290BD8062A09D86923C1EBFA
:10346000C10103FB00110A44024B33F812007047FC
:1034700000207047E0960060FFF7EABF0120704728
:103480000120704708B5FFF7FBFF08BD704708B57E
:10349000FFF7FCFF08BD000013B502AB03E9030012
:1034A0000F4B1B78B3B99DF8023073B16AB100F0CD
:1034B000E3FD04460146009800F0AAFD009920466D
:1034C00002B0BDE8104001F0DFBB009800F0BCFD89
:1034D0000446F3E7009800F0CFFD0099F0E700BF45
:1034E0000D100020034610B400885C880A4640EAAC
:1034F0000440998810BCFFF7CFBF0120704710B57A
:1035000000210446FFF7EEFF2146FFF7C0FF10BD84
:10351000FFF780BF01F0FABC704708B500F080FCEF
:10352000FFF7FAFFBDE8084040F6C41003F043BAC5
:1035300008B5FFF7F2FFBDE8084002F0A5BC08B5EA
:10354000FFF7EBFFBDE8084002F0A5BC38B501214C
:103550000546FFF7C7FF29460446FFF793FF08B962
:10356000002038BD2946204602F0D0FA0028F7D0C6
:103570002946204602F062F90028F1D0294620466B
:1035800002F042FA0028EBD0AB787BB147F65A4301
:103590009C4222D00ED847F601439C421AD047F6EF
:1035A00003439C4214D0B4F5F84F0ED02846FFF7E1
:1035B00065FFD6E747F65B439C4211D047F65C4374
:1035C0009C42F3D101F04EF9F0E7FFF7B1FFC7E7F6
:1035D00001F05AF9FFF7B3FFC2E701F04FF9E5E751
:1035E00001F04FF9E2E708B502F0B7FBBDE808408B
:1035F00000F080B808B500F082F8BDE8084002F09D
:10360000B1BB704708B5FFF7FCFF08BD012070474C
:10361000C24310B5D4B212F0010218BF01221A2120
:103620004FF0844004F0EEF914F002020C4818BF89
:1036300001220C2104F0E6F914F0040218BF012263
:1036400019214FF0844004F0DDF914F0080218BF8E
:103650000122BDE8104018214FF0844004F0D2B997
:103660000040004238B50546FFF7D0FF044610B1D0
:103670002846FFF7CDFF204638BD000010B50622D2
:10368000174C1A214FF0844004F0CAF901221A2184
:103690004FF0844004F0B6F9204606220C2104F0D5
:1036A000BFF9204601220C2104F0ACF906221921B1
:1036B0004FF0844004F0B4F9012219214FF0844006
:1036C00004F0A0F9062218214FF0844004F0A8F974
:1036D000BDE81040012218214FF0844004F092B957
:1036E0000040004210B50446FFF78CFF2046FFF76C
:1036F000B9FF10BD08B50020FFF7F4FF08BD08B5FD
:1037000002F058FAFFF7EEFF08BD000010B502F016
:1037100051FA074B1A788242044607D0187002F01B
:1037200073FB044B18602046FFF7DCFF10BD00BFA1
:103730000C1000200810002030B587B06C4684E8DB
:1037400003009DF80230BDF804500BB100F0CCFF2F
:103750000023ADF8163094E8030004AC0490ADF8F3
:10376000141094E8030002904DB1BDF808204FF604
:10377000FF739A4203D02046FFF7BFFE18B194E8CA
:10378000030000F0E7FE07B030BD008800F096BCF3
:1037900008B529B101F0CEFDBDE8084001F09EBE9C
:1037A00001F026FEF8E7000010B50446002878D0A6
:1037B000822813D102F0FEF9810772D4392000F07B
:1037C00037FF00F0C1FF4FF4487003F0F4F83920E0
:1037D00000F036FFBDE8104000F0B6BF83280ED1E0
:1037E00002F0E8F9C2075CD4532000F021FF00F09A
:1037F000ABFF4FF47A7003F0DEF85320E8E784283B
:103800000ED102F0D7F943074BD4472000F010FF48
:1038100000F09AFF4FF47A7003F0CDF84720D7E715
:10382000031FDBB2A02B0ED81E4B0146186802F016
:1038300021FA20B1204600F003FF00F085FF20466A
:1038400000F0F6FEC6E700F12003DBB2072B07D835
:1038500000F007040120A040C0B200F01FFFB9E74C
:1038600000F15B03DBB2022B05D82438BDE8104021
:1038700080B202F0B9B900F15803DBB2182B06D8B8
:10388000094ABDE8104032F8130002F0C9B93334D8
:10389000E4B2122C05D801F04DFDBDE8104001F056
:1038A0001DBE10BD640C00205699006008B503468B
:1038B00000285AD082280FD102F07CF9810754D514
:1038C000392000F0B5FE00F03FFF392000F0B8FECF
:1038D000BDE8084000F038BF83280AD102F06AF939
:1038E000C20742D5532000F0A3FE00F02DFF532065
:1038F000ECE784280AD102F05DF9430735D547206B
:1039000000F096FE00F020FF4720DFE7021FD2B252
:10391000A02ADBD900F12002D2B2072A07D800F092
:10392000070301209840C0B200F0C0FED0E700F1CC
:103930005B02D2B2022A04D8BDE80840002002F09F
:1039400053B900F15802D2B2182A04D8BDE8084091
:10395000002002F065B93333DBB2122B05D801F039
:1039600047FDBDE8084001F0B9BD08BD38B50546C2
:103970000C46FFF719FF1CB92846FFF797FF38BD23
:103980000A20013C03F017F8A4B2F4E708B539287F
:103990000CBF50210021FFF7E9FF08BD08B528B191
:1039A00000F07CFEBDE8084000F0CEBE08BD08B5C2
:1039B00028B100F07BFEBDE8084000F0C5BE08BDA0
:1039C0002DE9F0478779857880460C4600F056FE51
:1039D0003F090646C8B12E46BDB1C4F3072303F024
:1039E000F003402B04D004F12003DBB2072B1FD9D6
:1039F000A84B5E7816F0040607D0022000F0FEFE09
:103A000000F03CFE80F00106F6B2C4F30339B9F1D0
:103A10000B0F3CD8DFE819F00E000E005C005C00D4
:103A2000C000D8003B003B00DD00400150015001C8
:103A30000026EAE7C4F30723C4F3032713F0F00FCB
:103A400018BF3F01E4B285B157B104F12003DBB2E6
:103A5000072B384600D92CB900F020FE00F074FE88
:103A6000204656E000F030FEF8E72046FFF71EFF44
:103A70006FB104F12003DBB2072B384600D914B92B
:103A800000F014FE01E000F027FE00F05DFEA9F159
:103A90000809B9F1030F03D802F08CF8FFF722FEF2
:103AA000002E00F0628100F0E1FD10F0010040F016
:103AB0005C8188F8020000F0D1FD00F041FA404638
:103AC00000F06AF900F0CAFDBDE8F04700F044BA22
:103AD000C4F3072303F0F003C4F3032A202BE4B25A
:103AE00018BF4FEA0A1A34B1012C40D0002D46D03D
:103AF000002F3FD0B4E7674B5B78580714D45DB113
:103B0000BAF1000F04D0504600F0C8FD00F01CFED2
:103B10000020FFF749FEBAE72846FFF7C7FEBAF1D3
:103B2000000FB4D05046ABE795B13FB900F0E2FDCD
:103B300040EA0A00C0B2FFF731FFA8E7012FF5D134
:103B400000F0D8FD40EA0A00C0B200F0DFFD9EE7B9
:103B50002FB900F0EDFD5046FFF729FF97E7012F41
:103B600095D05046FFF723FF00F0E2FD8FE71DB12F
:103B7000052F8CD85046DEE7042F88D8EBE7002FBE
:103B8000E9D0392C0CBF4FF44870012002F013FF2C
:103B90002046FFF78BFE7AE714F4406FC4F38123CD
:103BA00008D0012B7FF473AF65B1C4F3090002F0B4
:103BB00037F86CE725B1C4F3090002F015F866E7A1
:103BC0002846FAE72846F2E72946E0B2FFF7E0FD8B
:103BD0005DE714F4407F2BD1002D7FF458AFC4F380
:103BE0004213E1064FEA830348BF0F25DBB248BF0B
:103BF0009D4004F00F0048BFED4300FA03F0C4F30A
:103C0000812448BFADB282B2022C45EA020009D03D
:103C1000032C0AD0012C02D000F06AF937E700F03B
:103C20005FF934E700F06CF931E700F056F92EE760
:103C3000C4F301220DB312F0010F3FF428AFC4F317
:103C400042108000C3B204F00F00984082B214F01A
:103C500010001EBF0F209840C043C4F3812414BF3E
:103C600083B20346022C43EA02000CD0032C0DD091
:103C7000012C05D000F08EF909E712F0020FDCE705
:103C800000F080F903E700F08DF900E700F046F955
:103C9000FDE600BF00210020E7B2C4F3032425B1F4
:103CA000204600F04DF9384645E73846FFF77FFEDD
:103CB000204600F051F9EAE65FFA84FAAAF1F0032F
:103CC000042B3DD8DFE803F003220E151E003DB1A2
:103CD000042F3FF6DCAEC4F3042000F047F9D6E62B
:103CE000052FF6E7C4F30420002DE2D100F028F9F7
:103CF000CDE625B1C4F3042000F01BF9C7E600F0BF
:103D000015F9C4E61A4B5B785B0704D4C4F30420AE
:103D1000002DCED0EAE74DB1C4F30424204600F0D4
:103D20000FF90321204600F045FDB0E6012000F028
:103D300065FD012F7FF6ABAE022000F05FFDA6E629
:103D40002DB10FB15046E4E6C4F30420CEE74FB1E5
:103D5000BAF1390F0CBF4FF44870012002F02BFE6E
:103D6000504616E7C4F30420A3E7BDE8F08700BF80
:103D70000021002038B501880446807800F0AAF9B7
:103D8000054600F017F900F0A7F829462046BDE8DF
:103D90003840FFF715BE000013B504460146062261
:103DA0006846FDF763FEA388F3B1BDF800204FF627
:103DB000FF739A4218D02046FFF7C8FB70B900F095
:103DC0005DFC88B1A3787BB1084B5B785B070BD5B2
:103DD000022002B0BDE8104000F010BD2046FFF701
:103DE000C9FF2046FFF78BFB02B010BD0021002069
:103DF00008B5002001F0F8FE002001F011FF00F0EE
:103E000073FC00F0A1FC01F085FBBDE8084001F067
:103E100065BB08B500F01CFCBDE80840FFF7E8BF33
:103E200008B500F04BFCBDE80840FFF7F2BFC0F357
:103E30000333062BC2B213D094BF0E33063303F004
:103E40000F03012B10D8F02A10D004D8E72A8CBF1A
:103E5000002001207047F42A14BF00200120704781
:103E6000E72A03D9F12AF7E70020704701207047BD
:103E700013B50446014606226846FDF7F7FDA38800
:103E80006BB1BDF800204FF6FF739A4207D020882F
:103E900000F014F902B0BDE81040FFF7C8BF0020E1
:103EA00002B010BD82B002AB03E9030002B070475C
:103EB00082B002AB03E9030002B07047704708B557
:103EC000FFF7FCFF08BD000008B5FFF7F8FF014B46
:103ED000188008BD0E1000207047FFF7F5BF0000E6
:103EE000024B1B881843FFF7EFBF00BF0E100020E6
:103EF000024B1B881840FFF7E7BF00BF0E100020E1
:103F0000024B1B885840FFF7DFBF00BF0E10002098
:103F1000704708B5FFF7FCFF08BD000008B5FFF7C4
:103F2000F8FF014B188008BD101000200020FFF79B
:103F3000F5BF012303FA00F080B2FFF7EFBF0000E6
:103F4000012303FA00F0034B1B88184380B2FFF7EC
:103F5000E5BF00BF10100020034A012383401088F2
:103F600020EA0300FFF7DABF10100020012303FA54
:103F700000F0034B1B88584080B2FFF7CFBF00BF53
:103F800010100020024B1B881843FFF7C7BF00BF6B
:103F900010100020024B1B881840FFF7BFBF00BF66
:103FA00010100020024B1B885840FFF7B7BF00BF1E
:103FB00010100020704701F0070330B5C908012434
:103FC00002EB81029C40E4B2013A002112F8015F49
:103FD00020FA01F343F300036B40234001316B40AF
:103FE00004291370F2D130BD10B5002200F007048F
:103FF000C00801EB800110468B5CE34003F0010335
:10400000934001321843042AC0B2F5D110BD00001C
:1040100017B4ADF80400C0F307200E280C460DD8E5
:104020009DF80430062B09D8C0EBC0000344054AB4
:1040300099B2204603B010BCFFF7BDBF03B010BC5F
:10404000704700BF1210002082B0ADF80400C0F32A
:1040500007200E280BD89DF80430062B07D8C0EB9C
:10406000C0001844034980B202B0FFF7BDBF002072
:1040700002B07047121000200E4B73B51D880E4B16
:10408000ADF804001B881D43ADB20F2445FA04F3BC
:10409000DB07E6B205D4013CF8D20026304602B078
:1040A00070BD0199304600F000FE80B20128F2D0C8
:1040B000F4E700BF101000200E10002007B5ADF887
:1040C00004000198FFF7D8FF019903B05DF804EBF5
:1040D00000F0EBBD13B5104BADF804101B782BB1FD
:1040E000019802B0BDE81040FFF7E8BF70B1019839
:1040F000FFF7C2FF044601460198FFF789FF0199C7
:10410000204602B0BDE8104000F0CFBD0198FFF797
:104110009BFF0446F3E700BF0D100020F8B50C4BE1
:104120000C4E1C780C4D3378A34200D1F8BD05EB42
:10413000C40335F834005F889A88D98840EA07407C
:1041400042EA01410134FFF7B3FE04F00704EAE755
:10415000931000209210002052100020064B10B443
:1041600018885C889A88D98840EA044042EA01416C
:1041700010BCFFF79DBE00BF4A100020F7B5224CCF
:10418000A37913F0F00F08D1A37833B11F4B204F60
:104190001D78204E3B78AB4201D103B0F0BD2146E3
:1041A00006226846FDF762FCA18841B3BDF80020F5
:1041B0004FF6FF739A4222D006EBC50360785A7817
:1041C00090421CD1207816F83520904217D19A7869
:1041D000AAB99A88521A92B2C72A10D8A2790A4864
:1041E000012161F30712A2719A7961F307129A71A2
:1041F000FFF7D2FD03B0BDE8F040FFF78FBF0135F8
:1042000005F00705C6E700BF4A1000209310002004
:1042100092100020521000202DE9F04FAE4D87B0D3
:1042200004460146062202A8FDF720FC0622294684
:1042300004A894F800B094F801A0A778B4F804801A
:10424000FDF714FCAB88002B00F0FF80BDF81020B8
:104250004FF6FF718A4200F0F880AE78002E00F031
:10426000F480A8EB030295F8069092B2C72A09F0F1
:10427000F00900F2B5800622294604A8B9F1000F22
:1042800071D1FDF7F3FBBDF810204FF6FF718A42A4
:10429000B94614D02188914211D187B9AB79012256
:1042A00062F30713AB71FFF759FF2846FFF774FD60
:1042B000AB79A3710026304607B0BDE8F08F8DF8CA
:1042C00008B08DF809A08DF810B08DF811A0B8F1E4
:1042D000000F23D0BDF810104FF6FF7291421DD091
:1042E000F7B97E497E4A0D7812787E49AA421CD1E0
:1042F0000298FFF7E3FEC0F30332012AC3B224D9C8
:104300000E3202F00F02012A28D810F4706F21D06B
:10431000A27912F0F00F1DD14E46CCE7002FC9D084
:10432000AB7943F00103AB71C4E701EBC2004778FE
:10433000574506D111F832705F4502D180780028C8
:10434000B8D1013202F00702D0E710F4706F01D04B
:10435000002BE1D02033DBB2072BDDD92046FFF75D
:104360001BFDB146D8E7FDF781FBBDF810304FF6D5
:10437000FF72934210D022889A420DD167B9AB796F
:10438000A3712046FFF708FD082221462846FDF7C5
:104390006DFBFFF7E3FE8EE72046FFF769FDD8B11E
:1043A000D7B1AB791F2B0CD92A88ADF8102004A8FF
:1043B00000228DF81220ADF814808DF81630FFF72A
:1043C000EBFC082221464448FDF750FBFFF7D6FEE0
:1043D000FFF7C4FE01266EE72046FFF7DDFCF9E794
:1043E000B9F1000F15D102AB8DF808B08DF809A016
:1043F0008DF80A7093E80300FFF754FD2846FFF795
:10440000CBFC082249462846FDF7CAFBFFF7A6FE6B
:1044100082E70622294604A8FDF728FBBDF81030E4
:104420004FF6FF729342B7D02A8823889A42B3D1BD
:10443000002FB1D1AB79A3712046FFF7ADFC082264
:1044400039462846FDF7ACFB35E7234901930622A0
:1044500004A8FDF70BFB019B002B64D0BDF81020D6
:104460004FF6FF794A455ED0AE78002E5BD1A8EBBF
:1044700003081FFA88F8B8F1C70F43D83E46002F4B
:10448000AAD01549062204A8FDF7F0FABDF81030AD
:104490004B4529D02A8823889A4225D1AB79DA075F
:1044A00013D413F0F00210D0F02AA37106D0DBB2BF
:1044B000C3F30312013262F30713A3712046FFF71F
:1044C0006BFC05480822214661E708222146024884
:1044D000FDF7CCFAEFE600BF4A1000209210002052
:1044E00093100020521000202046FFF7C1FC002846
:1044F0007FF467AFAB79204643F00103AB71FFF760
:104500004BFCD8E68DF808B08DF809A08DF80A703C
:1045100002AB93E80300FFF7C5FC082231460C48C4
:10452000FDF73EFB35E7002F3FF456AF2046FFF77F
:104530009FFC064600283FF44FAF0822214604485E
:10454000FDF794FA0248FFF720F9FFF717FE20E77E
:104550004A100020F0B587B06C4684E8030020467E
:10456000FFF75AFE2E4FBDF804202E4D064678B1B7
:1045700094E803000490ADF814103AB1BDF810208F
:104580004FF6FF739A4201D0FFF792FC264C41E0B0
:1045900094E8030004AB83E803000290002AF5D0FE
:1045A000BDF8084038782A784FF6FF718C42EDD07C
:1045B000441C04F0070494420AD019461A4B0822FE
:1045C00003EBC000FDF752FA3C70FFF7A7FDDDE7F3
:1045D000FFF726FC0822314614483E702E70FDF786
:1045E000DFFAD3E704EBC000FFF716FEB0B12B787B
:1045F00034F8330004EBC3035E889A88D98840EA14
:10460000064042EA0141FFF753FC2B78013303F0E7
:1046100007032B7028783B788342E3D107B0F0BDC5
:104620009210002093100020521000204A10002009
:10463000024B0146186801F052BB00BF640C002019
:10464000024B0146186801F04CBB00BF640C00200F
:10465000014B186801F047BB640C0020024B93F932
:104660000000C0F3C7007047A4100020024B187868
:1046700000F00700704700BFA4100020034B18781B
:1046800010F0070018BF0120704700BFA4100020E1
:10469000014B1878704700BFA6100020024B1A7813
:1046A00010431870704700BFA6100020024A13780C
:1046B00023EA000313707047A6100020014B00226C
:1046C0001A707047A6100020024B1A781043187019
:1046D000704700BFA7100020024A137823EA0003A6
:1046E00013707047A7100020014B00221A7070470A
:1046F000A7100020014B1878704700BFA5100020BC
:10470000704708B5FFF7FCFF08BD0000064A527865
:10471000520708B506D5054A1178814202D01070BB
:10472000FFF7EFFF08BD00BF00210020A51000200B
:1047300008B5044B1A781AB100201870FFF7E1FF92
:1047400008BD00BFA510002010B5124B124A1B78FF
:104750001278124C1343124A20681278037032B157
:104760001343037001F078FA08B1FFF7E1FF246802
:104770000C4908222046FDF749F948B1214609486D
:104780000822FDF773F92046BDE8104001F01ABA7F
:1047900010BD00BFA6100020A7100020640C002050
:1047A000A51000209C100020704708B5FFF7FCFF03
:1047B00008BD00000A4A5278520710B50CD5094CC2
:1047C00041EAC0012170FFF7BBFB94F90000C0F380
:1047D000C700FFF7EAFF10BDBDE81040FFF7B0BB10
:1047E00000210020A410002008B5034B0020187001
:1047F000FFF7DBFF08BD00BFA410002008B50C4A7E
:1048000092F9003023EA000040B2107042070ED146
:10481000DBB283420BD0074B5B785B0707D5C0F355
:10482000C700FFF799FBBDE80840FFF7DDBF08BDF3
:10483000A410002000210020094A08B55378C3F3D2
:10484000800181420AD060F382035370108800F027
:1048500038F8BDE808400220FFF7D0BF08BD00BF10
:1048600000210020044B5878C0F3800080F0010044
:1048700000F00100FFF7E0BF002100200120FFF75A
:10488000DBBF0020FFF7D8BF08B500F0A5FFBDE8EB
:1048900008404FF6FF71002000F082BF08B50020ED
:1048A00000F031FF4FF6E763C31A5842584108BD84
:1048B000022000F019BF032000F016BF042000F012
:1048C00022BF0146042000F06BBF01460F2000F01C
:1048D00075BF0146132000F071BF0020FFF7F9BF3C
:1048E00008B50020FFF7F1FFFFF7F7FF08BD000054
:1048F00010B500F071FF4FF6E761002000F050FFA7
:104900000021022000F03EFF0021032000F03AFFCA
:10491000174B00244FF4A05104201C8000F040FFEE
:104920002146062000F02EFFFF21072000F02AFF7D
:104930002146082000F042FF21460D2000F022FF12
:104940002146182000F03AFF2146172000F01AFFF8
:1049500021461C2000F032FF2146202000F020FFDD
:104960002146182000F02AFFFFF7BAFF10BD00BF54
:104970000E100020FFF7BCBF01460E2000F002BF62
:1049800008B501F041FA024B1860024B186008BDEF
:10499000A8100020AC1000207047704708B5FFF742
:1049A000FCFF08BD704708B5FFF7FCFF08BD00001D
:1049B00008B5054800F064FA00F016FFFFF7ECFFB9
:1049C000FFF7ECFF08BD00BF794E00600120704783
:1049D00008B5FFF7FBFF08BD7047704708B5FFF744
:1049E000FBFFFFF7FAFF08BD08B500F06BFABDE862
:1049F0000840FEF743BE08B501F004FA00F014FBCE
:104A0000FFF7F2FFFFF7CFFF08BD00002DE9F04FE1
:104A100085B03C4F00F022FB3E4600242046013486
:104A2000E4B216F8015B00F075FA0F2C46D085420F
:104A3000F4D0354B1B789B0701D500F071FAFFF7D6
:104A4000C7FF4FF0000801900DF108095FFA88FADE
:104A5000504600F05FFA17F8013B9842044625D013
:104A600043405FFA83FB002501261BEA060F15D0A1
:104A7000019B9BB1344214BF012300238DF80850E1
:104A80008DF809A08DF80A3001F0F2F940F001002C
:104A9000ADF80C0099E80300FEF74EFE0135EDB2CB
:104AA0007600072DF6B2E0D107F8014C08F10108B5
:104AB000B8F10F0FCAD1FFF763FF1BE08542B8D1F1
:104AC000124D01F0D5F92B888342044612D04FF6DF
:104AD000FF73ADF8083000238DF80A3001F0C8F9F3
:104AE00040F00100ADF80C0004AB13E90300FEF741
:104AF00023FE2C8000F036FD05B0BDE8F04FFEF738
:104B000005BE00BFB2100020C1100020B010002070
:104B100010B500F0D5F8B0F5A44F04462FD2B0F58B
:104B2000A04F80F09980DF2815D8CC2877D8A72807
:104B30000AD8A42866D8012804D0031F9BB2A12B51
:104B400028BF0024204610BDA0F1A8039BB2182B5B
:104B50005DD90024F6E7B0F5804F0BD2B0F5005FC9
:104B600080F08580E728EDD9A0F580739BB2B3F57E
:104B7000F85FE5E7C0F30B0444F42044E2E7B0F546
:104B8000A54F22D245F25F23984252D845F23F23E7
:104B900098420FD845F21F23984243D8C0F38503AB
:104BA000012400F00300844044EA431444F40D441B
:104BB000A4B2C7E7C0F38203012400F003008440DD
:104BC00044EA431444F40C44F2E745F2BF2398420C
:104BD0000AD845F29F23984200F01F0034D84AF2C9
:104BE000F40444EA0024ADE7A0F5A543403B9BB2A2
:104BF0001F2BAED8040204F4F85444F4204444F0CB
:104C0000F0049FE7A0F1240444F48044D0E7583432
:104C10001C4BE4B233F8144044F4884492E740F467
:104C2000A044C5E700F01F044AF2F10343EA04245C
:104C300088E7C0F38203012400F00300844044EAC3
:104C4000431444F40A44B3E700F0C0F8040204F447
:104C5000F85444F4005475E700F01F0000F0B6F873
:104C6000C4F3431440EA042444F41044A0E7C0F31E
:104C7000042000F0ABF8030203F4F853E4B21C4341
:104C8000E7E700BF8899006082B0ADF80410C1F377
:104C900007210E2906D89DF80420062A02D802B062
:104CA000FEF7EABB002002B0704707B5ADF804106C
:104CB0000199FFF7E9FF03B05DF804EBFFF728BFA8
:104CC000E72850D8DF2807D8312865D00ED8292802
:104CD00058D02A2867D07047A0F1E003072B42D8AC
:104CE000DFE803F01541242933413D42392804D03F
:104CF000822802D0352840D07047334B1A7892076B
:104D00005CD15B7813F0080F18BF292070472E4A3A
:104D10001378D9074ED4527812F0010F23D013F034
:104D2000100F08BFE32018BF00207047264B1B78E8
:104D300013F0040FF2E7244A137859073CD4527851
:104D4000D2073BD413F0100FEDE71F4B5A789107B1
:104D500009D51B7813F0100F08BFE720E3E71A4BC3
:104D60001B781A07F6D47047174A1378190727D407
:104D700052789107E6D5E4207047134B1B7813F067
:104D8000200FC1E7104B1A7892061BD45B7813F002
:104D9000080F18BF392070470B4B1B7813F0400FDA
:104DA00018BF2A207047084B1B7813F0400F18BF1C
:104DB0003120704739207047E2207047E02070476B
:104DC000E62070473520CEE700210020294A1378DD
:104DD000590707D500F01801082927D100F0F7007E
:104DE00040F00400190707D500F01801182926D152
:104DF00000F0E70040F014005278D10707D500F02A
:104E00001801082924D100F0F70040F001009207B2
:104E100007D500F01802182A23D100F0E70040F06F
:104E20001100DB0648BF00F0E700704700F01401F6
:104E3000042904BF00F0FB0040F00800D2E700F0B6
:104E40001401142904BF00F0EB0040F01800D3E770
:104E500000F01101012904BF00F0FE0040F008003D
:104E6000D5E700F01102112A04BF00F0EE0040F077
:104E70001800D6E70021002000207047002070476E
:104E8000014B1860704700BF680C0020FFF7FCBCA6
:104E900008B500F0E3F84FF4C87001F08CFD00F0A5
:104EA000DDF8002000F036F8C30705D5FFF7EEFF68
:104EB000BDE8084000F0E8BF08BD08B5FFF7E8FF0F
:104EC00008BD000008B5FFF7E9FC08B9FFF752FD7F
:104ED000FFF7EEFC094B1870FFF7F0FC084B188049
:104EE000FFF7EBFFFFF7E7FC80B2FEF7F6FF054B9D
:104EF0001888BDE80840FFF70CB800BFC1100020BB
:104F000000210020101000207047704708B5FFF7FF
:104F1000FCFF08BD014B185C704700BF1121002049
:104F20007047704708B5302383F31188C1B220F46D
:104F30007F60032220F00F0002F072FD002383F354
:104F4000118808BD38B50C4D0F2455F8040B421CD0
:104F500001D0FFF7E7FF013C14F0FF04F5D1074D46
:104F6000072455F8040B431C01D0FFF7DBFF013C7D
:104F700014F0FF04F5D138BDD8990060BC990060E9
:104F80002DE9F84FDFF8948058F821400D46611C58
:104F9000074637D0302383F31188DFF8849004EA82
:104FA0000906E4B221463046062202F039FD2146C8
:104FB0000022304602F026FD002484F31188FFF71A
:104FC000B0FFDFF860B007264FF0010A5BF8040B72
:104FD000421C19D10023013E1C434FEA4A0A16F035
:104FE000FF06E4B25FFA8AFAF0D158F82500431CB4
:104FF00001D0FFF797FF211E18BF01212846FEF7B9
:105000001BFA7C55BDE8F88FC1B200EA090002F036
:10501000EFFC0028DED15346DDE700BFD8990060E1
:1050200000F0FFFFBC99006010B50F24FFF78AFF66
:10503000224600210748FCF7B3FD2246002106481E
:10504000FCF7AEFD204600F039F8BDE81040FEF751
:105050005FBA00BF112100200221002030B50024DA
:1050600085B00B22214601A80094FCF799FDE1B21E
:1050700068460134FFF784FF0F2CF8D10D48224613
:105080006946FCF7C3FC002814BF0125002504D0A5
:10509000084822466946FCF7E9FC074905482B46C3
:1050A0000F2200F01BF80446FEF734FA204605B044
:1050B00030BD00BF022100201121002010B5C0EB3F
:1050C000C0042046FCF792FC034B22460021BDE8B9
:1050D00010401860FCF764BDC41000202DE9F04FAB
:1050E0004A4C85B026780192494A03901D46002318
:1050F0008B461370002E5CD000F086FE454B19687D
:105100001860411AFF2904D821B9002D5AD135461B
:1051100050E0FF21404BDFF804C11F680022C9B2F4
:1051200022708CF800209646904691460198D3B2A2
:1051300098420BD8B8F1000F01D001232370BEF1C3
:10514000000FE2D001238CF80030DEE77B1E07F170
:10515000060A13F8010F40B1814233BF401A83F8A9
:105160000090B646187038BFB0469A45F1D107375F
:105170000132DBE7039A7578D75C00226F4009FAA9
:1051800002F818EA070F5FFA88FB0BD010F80280CC
:10519000B8F1000F06D1012100F802A08BEA050545
:1051A0008E468C460132072AE9D106F8015F0133A9
:1051B00017E01DB9194B1B7813B31DB900F024FE7D
:1051C000144B1860144B94F800C01B680293104BEA
:1051D000197800230BF1FF369E464FF001094FF07E
:1051E000140A029A019DC3EBC3001044DAB295423F
:1051F000C0D8BEF1000F03D0054B84F800C0197071
:10520000034B187805B0BDE8F08F00BFC310002035
:10521000C2100020C8100020C4100020CC100020B4
:1052200008B501F0DDF8FFF7E6FBBDE8084001F046
:10523000EDB808B501F0F0F8FFF7E8FBBDE808406D
:1052400001F00AB908B500F0A3FD01F0C6F8FFF7B8
:10525000AFFBFFF7E5FFFFF7ECFFFFF7BFFBFAE758
:10526000164B1B78D90707D5154B187840007F28B7
:1052700020D808B3C0B270479A0703D5104B1878EE
:105280008000F4E75B0703D50D4B1878C000EEE70C
:105290000C4B1B7863B10C4A094912780878934289
:1052A000F4D210FB03F0C000B0FBF2F080B2DEE7F6
:1052B0000820DFE77F20704701207047D8100020CA
:1052C0006E0C0020D91000206F0C0020154B1B78AD
:1052D000D90705D5144B1878800800B3C0B27047C1
:1052E0009A0703D5104B18784008F6E75B0705D5F9
:1052F0000D4B18787F28F0D97F2070470B4B1B7817
:105300005BB10B4A084912780878934236BF10FB0C
:1053100003F080B2B0FBF2F0ECE70120DEE7012001
:10532000704700BFD8100020720C0020DA10002057
:10533000730C0020CD2808B505D1FFF791FF40423E
:10534000294BD87008BDCE2802D1FFF789FFF7E7B7
:10535000CF2805D1FFF784FF4042234B9870F1E737
:10536000D02802D1FFF77CFFF7E7D92804D1FFF757
:10537000ADFF1D4B1871E5E7DA2803D1FFF7A6FF53
:105380004042F6E7DB2805D1FFF7A0FF4042164B6D
:105390005871D7E7DC2802D1FFF798FFF7E700F153
:1053A0002F03DBB2072B08D80F4A0123D13803FAA9
:1053B00000F0537818435070C4E7DD2805D10B4A3C
:1053C000137843F001031370BCE7DE2804D1074AC9
:1053D000137843F00203F6E7DF28B3D1034A1378CA
:1053E00043F00403EFE700BFD2100020D8100020E4
:1053F000364BCD2893F902200AD193F903100029E6
:105400000CDA0021D97052B9314A0021117006E03E
:10541000CE280DD193F903100029F2DC72B11A796C
:105420005B7913435AB2002B4FD12A4B1A70704745
:10543000CF2806D1002AF1DA00229A7093F90320CE
:10544000E1E7D02802D1002AF6DCE7E7D92893F972
:10545000041004D10029E1DD00211971DEE7DA280A
:1054600002D10029DADAF7E7DB2893F9051004D135
:105470000029D3DA00215971D0E7DC2802D10029B4
:10548000F8DCCBE700F12F01C9B2072907D8D138E2
:1054900001218140587820EA01005870BEE7DD28DC
:1054A00005D10D48017821F001010170B6E7DE2831
:1054B00004D10948017821F00201F6E7DF28ADD1D7
:1054C0000548017821F00401EFE77047D210002071
:1054D000D9100020DA100020D810002008B500F004
:1054E000C7FC094BDA7899780A431CBF074A108039
:1054F0001A795B7913431CBF054B1880BDE808403F
:10550000014800F067BB00BFD2100020CE10002081
:10551000D010002008B5062205480021FCF740FB0A
:10552000044A00231370044A1370044A137008BD20
:10553000D2100020D9100020DA100020D81000204E
:1055400090F902305BB990F9033043B990F9043017
:105550002BB990F90500003818BF012070470120D1
:105560007047000037B5574C062221466846FCF7C5
:105570007DFA00239DF80220A370E370237163710C
:105580009DF8033013430AD04F4B188800F075FC88
:105590004E490B783BB34E4A127890422DDC9DF871
:1055A00004209DF8053013430BD04A4B188800F0B7
:1055B00064FC49490B78002B4CD0484A1278904241
:1055C00052DC4048694600F093FB18B93D48FFF7AC
:1055D000B7FF08B1FFF782FF062269463948FCF79A
:1055E00045FA03B030BD3E4A127802EB8202B0EBBE
:1055F000420FD4DD01330B7001E0FF2BFAD19DF98E
:1056000002503DB1FFF72CFE002DCCBF0123FF233C
:105610004343A3709DF903503DB1FFF721FE002DD8
:10562000CCBF0123FF234343E37094F90220002AF7
:10563000B5D094F90330002BB1D0B5214A431212F2
:1056400001FB03F308BF01221B1208BF0123A27054
:10565000E370A4E7234A127802EB8202B0EB420F18
:10566000AFDD01330B7001E0FF2BFAD19DF904503F
:105670003DB1FFF72BFE002DCCBF0123FF23434399
:1056800023719DF905503DB1FFF720FE002DCCBFE1
:105690000123FF234343637194F90420002A90D02F
:1056A00094F90530002B8CD0B5214A43121201FB2E
:1056B00003F308BF01221B1208BF0123227163718B
:1056C0007FE700BFD2100020CE100020D9100020AC
:1056D0006D0C0020D0100020DA100020710C00208A
:1056E0006C0C0020700C002007B50023014601223D
:1056F0000DF107008DF8073000F078F89DF80700ED
:1057000003B05DF804FB07B50023014602220DF14A
:105710000600ADF8063000F069F8BDF8060003B0E9
:105720005DF804FB07B50422014600230DEB0200DF
:10573000019300F05BF8019803B05DF804FB07B536
:1057400001228DF8071001460DF1070000F066F800
:1057500003B05DF804FB07B50222ADF80610014660
:105760000DF1060000F05AF803B05DF804FB07B530
:105770000422019101460DEB020000F04FF803B046
:105780005DF804FB38B50C460546FFF7ADFFA042B7
:1057900005D021462846BDE83840FFF7D0BF38BDC8
:1057A00038B50C460546FFF7AEFFA04205D02146AE
:1057B0002846BDE83840FFF7CEBF38BD38B50C46A7
:1057C0000546FFF7AFFFA04205D021462846BDE8B9
:1057D0003840FFF7CCBF38BD024824220021FCF737
:1057E000DFB900BFDC100020FFF7F6BF70B50D4633
:1057F000144600210646FCF7D3F92B19242B88BF49
:10580000C5F124043CB10449224629443046BDE890
:105810007040FCF72BB970BDDC1000200B46114422
:10582000242988BFC3F1240222B10146024818444A
:10583000FCF71CB9704700BFDC10002038B50546E6
:105840008878002800F0DC80A5F5E045ABB2222B7B
:1058500000F2BB80FFF732F86A4C013D2080212D19
:1058600012D8DFE805F04DBD551B1F59235D692F88
:10587000B5336D3771973B759F417B8327612B65EE
:10588000477F8EA9B31651C5237843F001032370D7
:1058900095E0637843F00803637090E0237843F069
:1058A0000203F4E7237843F00403F0E7237843F09E
:1058B0000803ECE7637843F00103EDE7637843F016
:1058C0000203E9E7237843F01003E0E7237843F08D
:1058D0002003DCE7237843F04003D8E7FEF7A0FA83
:1058E000237843F08003D2E7237823F00C0343F0BE
:1058F0000C03CCE7637823F0030343F00303CBE707
:1059000023786FF30003C2E763786FF3C303C3E741
:1059100023786FF34103BAE723786FF38203B6E786
:1059200023786FF3C303B2E763786FF30003B3E741
:1059300063786FF34103AFE723786FF30413A6E7AF
:1059400023786FF34513A2E723786FF386139EE75E
:10595000FEF766FA23786FF3C71398E7237823F0EE
:105960000C0394E7637823F0030395E72378C3F3EC
:10597000800282F00102D2B262F3820362F3C303B7
:1059800085E76378DA4302F0010262F3000362F311
:10599000410381E72378C3F3801282F0010262F3AE
:1059A000861374E7FEF73CFA2378C3F3C01282F043
:1059B000010262F3C7136AE70120FEF7DDFF2088CA
:1059C000FEF77FFFFEF72CFA002038BD0020F4E739
:1059D0002378C3F3001282F0010262F3041356E746
:1059E0002378C3F3000282F0010262F300034EE762
:1059F0006378C3F3C00282F0010262F3C3034BE792
:105A00000120E2E70021002047F61643984210B536
:105A10000C461BD1FEF73CFEA2780D4B72B100F094
:105A2000AA00002815BF01220022352029201A7063
:105A3000FEF7FEFDFEF788FE002010BD1B78002B50
:105A400014BF35202920FEF7FBFDF3E70120F4E722
:105A500000110020F8B5144682789DF818701D4694
:105A6000284B92B11C7000F003FA274B188004F108
:105A70002003DBB2072B44D804F007040120A04028
:105A8000C0B2BDE8F840FDF789BF1E78A6422ED10E
:105A90001D4B188800F0F1F9C72828D8AE4205F14F
:105AA000200415D006F12003DBB2072B06D806F040
:105AB00007060120B040C0B2FDF779FFE3B2072B23
:105AC00006D805F0070301209840C0B2FDF766FF35
:105AD0003846E4B2FDF75AFF072C12D805F0070547
:105AE0000120A840BDE8F840C0B2FDF760BF04F156
:105AF0002003DBB2072B04D804F007040120A040E8
:105B0000F0E7F8BD01110020021100200346A3F5C3
:105B1000F843183B07B50846062B3BD8DFE803F0EF
:105B2000171E0410252C330026230093E1231A4668
:105B300047F61A41FFF78EFF002003B05DF804FB23
:105B400027230093E5231A4647F61B41F2E7262355
:105B50000093E022E12347F61841EBE72723009367
:105B6000E422E52347F61941E4E726230093E222E5
:105B7000E12347F61C41DDE727230093E622E523D6
:105B800047F61D41D6E728230093E522012347F677
:105B90001E41CFE7887818B1024B00221A70CCE77B
:105BA0000120CAE701110020014B1860704700BFB7
:105BB00004110020024B186808B1036818477047A9
:105BC00004110020024B1B680BB15B68184770473B
:105BD00004110020034A12681AB10221017093686F
:105BE00018477047041100200B4B07B51A888242F2
:105BF0000ED01880094B1B6853B103228DF80500A5
:105C0000000A8DF80600DB688DF8042001A898478B
:105C100003B05DF804FB00BF0A110020041100204E
:105C20000B4B07B51A8882420FD01880094B1B68AE
:105C30005BB104228DF80500000A8DF80600DB68D0
:105C40008DF804200DEB0200984703B05DF804FBCB
:105C50000811002004110020821C00F1080300201C
:105C60009A4200D1704712F8011B0029F8D0013088
:105C7000C0B2F5E70346084651B19A1C083312F842
:105C8000011B814203D09A42F9D1002070470120C4
:105C9000704730B54FF0FF32841C002314F8015BCD
:105CA0008D420ED0B2F1FF3F02D1002D08BF1A463F
:105CB0000133DDB2062D5BB2F0D1531C01D010448C
:105CC000817030BD10B5831C0022083013F8014BE1
:105CD0008C4208BF03F8012C8342F7D110BDFFF7B7
:105CE000D8BFFFF7EFBF062200210230FBF758BFF5
:105CF00008B50622FBF78AFE003818BF012008BD50
:105D0000704708B5FFF7FCFF08BD000008B5002884
:105D1000034B14BF022001201870FFF7F2FF08BDEB
:105D20000C11002008B5034B03201870FFF7E9FFA2
:105D300008BD00BF0C110020FFF7E8BF08B5034BFA
:105D400001201870FFF7DDFF08BD00BF0C11002017
:105D5000FFF7F4BF70477047704708B5FFF7FCFFC7
:105D600008BD704708B5FFF7FCFF08BD10B5FFF789
:105D7000F1FFFFF773F9FFF7EEFF0024E0B2FFF742
:105D8000C9F818B901340F2CF8D110BD0120FCE777
:105D900008B500F087FEBDE8084000F037BC08B544
:105DA000FDF721FCBDE80840AA2000F004BE08B5BC
:105DB000FEF784FCFEF798FCFEF74AFCFFF7AAFB0F
:105DC0000020FFF711FF0020FFF72AFFBDE8084081
:105DD000FDF710BC302383F31188064BDA69064BBC
:105DE0001A60064A00231360054A136083F3118882
:105DF000704700BF4821002018110020101100201A
:105E000014110020FFF7E6BF70B5302383F311882B
:105E1000124B13481349DC6903680A68E41AA2426A
:105E2000114A08D9A3F5E453036010680F4B0344EB
:105E300004F5E45413600C601668002181F31188A6
:105E40004FF47A7542F20F7042F210720023E4FBB5
:105E50000501FBF763FD304470BD00BF4821002001
:105E6000181100201011002014110020C09699195B
:105E700008B5FFF7C9FF80B208BD10B50446FFF7AB
:105E8000C3FF001B80B210BD08B54FF47A7000F05C
:105E900092FD00BE08BD70477047302383F3118820
:105EA000002383F31188704738B5094C1046224609
:105EB0000D46002142F8041F40EA0520194600F073
:105EC000CDFA20606068002818BF204638BD00BFAA
:105ED0001C11002090F87A10074A0229137807D184
:105EE000012B01D0062B05D1044B52781A70704754
:105EF000024A1370704700BF5C110020501100204F
:105F000070B50446064803680D460BB100F0CCFBA3
:105F10002B462146034A0248BDE8704000F0BCBB56
:105F200038110020295F006038B50C46302383F318
:105F300011880B78042B03D0002383F3118838BD1C
:105F4000114D2B78002BF7D0104B1B78002BF3D082
:105F50000B899B0705D40E4A08230121204600F037
:105F600052FE287842F21073A0FB03034FF47A72BA
:105F7000002300F2E7300021FBF7D0FC214680002F
:105F8000FFF7BEFFD8E700BF34110020740C0020DB
:105F90005111002038B590F8743003F07F02212AA7
:105FA00004467DD113F0800F90F8750021D00228AF
:105FB00019D003280ED0012872D194F878302BB96B
:105FC000464AA2660822E266236738BD0023A3661C
:105FD000E366F9E7B4F87830002B61D1404AA26655
:105FE0000120E066F0E73F4BA3660120E066002356
:105FF000EAE70A2836D00B280DD0092850D194F8AA
:106000007830012B4CD8384BA3660223E366374B1C
:1060100023670120D9E7B4F87850FDB994F87630B9
:106020002F4A003B18BF012313702E4B1A78AAB1D8
:10603000302282F31188187842F21073A0FB030318
:106040004FF47A72002300F2E7300021FBF766FC80
:1060500021468000FFF754FF85F311880023A366D3
:10606000E366D5E794F877201E4B1A70002AF5D026
:10607000302282F31188187842F21073A0FB0303D8
:106080004FF47A72002300F2E7300021FBF746FC60
:1060900021468000FFF734FF002383F31188DDE7FA
:1060A000B4F8742040F281639A4201D000208CE75A
:1060B00094F87920616894F878304D6894F87710F6
:1060C00043EA0223204694F87620A8470028EDD022
:1060D0004368A3660368E366002399E75111002033
:1060E000740C0020341100205C110020D55E00608B
:1060F00010B5064A064C117824784B1C03F00F03A8
:106100009C421EBF034C1370605410BD3021002010
:10611000312100202021002010B504460846052921
:1061200021D8DFE801F01A20031A1A1E302383F366
:1061300011880D4A2046012100F013FD0B4A02216F
:10614000204600F00EFD002383F31188084B1B78D6
:1061500013B10520FFF7CCFF0220BDE81040FFF788
:10616000C7BF0520F9E710BD149A0060389A006097
:106170005911002008B5102204480021FBF710FD3A
:10618000034A00231370034A137008BD2021002026
:10619000302100203121002070B5284D284C28786E
:1061A0002378284E0021984230D101B1207070BD73
:1061B0002370254B01221A70244B93F87F10081E80
:1061C00018BF0120FFF7AEFDE9E723701E4B002248
:1061D0001A70FFF7ECFD1D4B93F87F10081E18BFD7
:1061E0000120FFF7A9FDDAE72370184B93F87F1021
:1061F000081E18BF0120FFF789FDD0E7002123709A
:106200000846F8E72370FFF799FDC8E71A460133FF
:10621000B25C03F00F030121052AC4D80FF2040C6D
:106220005CF822F005620060A7610060E96100602F
:10623000FD610060B1610060CB6100603021002031
:10624000312100202021002059110020C4210020EC
:1062500038B50E4D2B68002201210446986802F0E3
:1062600029FD204600F053FC4FF4FA7000F0A3FB28
:106270000749204600F037FC2B6800229868114639
:1062800002F018FD034B00221A6038BDC021002027
:106290005C9A00603811002038B50B4D2B6804461D
:1062A00000229868012102F005FD204600F02FFC35
:1062B0000649204600F017FC2B680022986811461A
:1062C000BDE8384002F0F6BCC02100205C9A0060B6
:1062D000014B1878704700BF5011002038B50546B3
:1062E000302383F31188104C2378042B0DD123899C
:1062F0009B070ED40C482A460121082300F083FC9A
:106300000A4808222946FBF7B1FB002383F31188D2
:1063100038BD236958694FF0FF310C3000F058FB4D
:106320002378042BE6D0F0E7C4210020511100208F
:1063300010B53023044683F311880D4B1A78042AD4
:1063400003D0002383F3118810BD1A89520707D5A3
:106350005B69586964210C3000F03AFB0130F0D0E1
:10636000034806232246022100F04DFCE9E700BF66
:10637000C421002010B53023044683F311880D4B4F
:106380001A78042A03D0002383F3118810BD1A89D8
:10639000520707D55B69586964210C3000F018FB7F
:1063A0000130F0D0034803232246022100F02BFCE9
:1063B000E9E700BFC421002070477047704708B567
:1063C000FFF7FAFF00F09DFEFFF7F7FF08BD08B5E5
:1063D00000F09FFEFFF7F2FF08BDFFF7B9BC000019
:1063E00008B5FFF7C7FE0648FFF732FF054B064A20
:1063F0001A604FF4FA70BDE8084000F0DCBA00BF44
:10640000C421002070110020780C0020014B186876
:10641000FFF7CABB7011002010B50E4CFFF7BCFE91
:106420002378052B15D12378052B05D0FEF78CF9A1
:10643000BDE81040FFF752B8FFF7B1FCFFF796FC3C
:106440000028F0D0204600F0F0FB2046FFF724FFA4
:10645000E9E710BDC42100207047000010B5040A10
:10646000032C0FD007D8012C21D0022C07D1144BBC
:106470003B20136010BD212C0DD0222C11D0002008
:106480000346F6E7C0B20228F9D80E4B0E4953F87E
:106490002030085CEDE769B10129F0D10B4B0920F0
:1064A000E7E751B10129EAD1094B7B20E1E7094B2C
:1064B0001220DEE7084B0920DBE7084B4020D8E735
:1064C0007B9A00606C9A0060789A0060A69A0060DF
:1064D000689B0060B69A00608D9A0060C89A006060
:1064E000024B034A1A60034A5A6070473421002065
:1064F0008822002000000820094B30B51C684D1E82
:10650000224449422A440A4059681044884204D827
:10651000A04202D31860104630BD0022FBE700BF46
:106520003421002008B5302383F31188FFF7E4FFFE
:10653000002383F3118808BD70B5BFF34F8FBFF3FD
:106540006F8F1A4A0021C2F85012BFF34F8FBFF36A
:106550006F8F536943F400335361BFF34F8FBFF321
:106560006F8FC2F88410BFF34F8FD2F88030C3F31F
:10657000C900C3F34E335B0143F6E07403EA04063B
:10658000014646EA81750139C2F86052F9D2203BD2
:1065900013F1200FF2D1BFF34F8F536943F48033CF
:1065A0005361BFF34F8FBFF36F8F70BD00ED00E0FD
:1065B000FEE7000070B5144C082560682368A268E7
:1065C000043B01468A4219D8D31C1B1AC11E23F072
:1065D00003038A4238BF00231844E368DA1C121A06
:1065E000C11E22F00302994288BF00220021FBF75E
:1065F000D7FA013D04F11004DFD170BD53F8046FE8
:1066000041F8046BDEE700BFE49B006038B5084C3E
:106610000123002523706560FFF762FF05490648E6
:1066200000F03CF90223237085F3118838BD00BFC8
:1066300040210020689C00604821002072B6034B76
:10664000D865034B03221A70FEE700BF48210020E3
:1066500040210020034BDA68937D0BB1013B937519
:1066600000F034B84821002010B50A4C23699A681C
:1066700091420CD85A6881600360426010609A6849
:106680005860511A99604FF0FF33A36110BD1B6829
:10669000891AECE74821002010B40361002310BCE4
:1066A000C2604361FFF7E0BF036881689A680A44EB
:1066B0009A60426813605A6000230360024B4FF0F7
:1066C000FF329A61704700BF4821002070B5124D1B
:1066D000EB692A460133EB6152F8103F934206D032
:1066E0009A68013A9A6030262C69A36803B170BD9C
:1066F000226861680A605160236083F31188E3684F
:1067000021692046984786F3118861690029EBD0FA
:106710002046FFF7A9FFE7E7482100200023037583
:10672000826803691B6899689142FBD25A680360CA
:1067300042601060586070470023037582680369E7
:106740001B6899689142FBD85A68036042601060E8
:1067500058607047084B10B51C68D86822681A60EA
:10676000536001222275DC60FFF7E6FF01462046F8
:10677000BDE81040FBF7BCB84821002008B508462A
:10678000302383F311880A7D0023052A06D8DFE829
:1067900002F00B050503120E826913604FF0FF3300
:1067A0008361FFF7BBFF002383F3118808BD826973
:1067B0009368013393604268036813605A60EDE7A1
:1067C000FFF7ACBF064BD9681422087518688A75A4
:1067D00002681A60536001220275D860FBF788B81E
:1067E0004821002030B50C4BDD684B1C87B00446B7
:1067F0000FD02B46094A6846FFF74EFF2046FFF7A9
:10680000E1FF009B13B16846FFF74EFFA86907B090
:1068100030BDFFF7D7FFF9E7482100207D67006012
:10682000044B1A68DB6892689B689A4201D9FFF7AB
:1068300091BF704748210020084BDA681B689868B0
:106840009368927D22B1984294BF00200120704746
:10685000984234BF00200120704700BF482100202B
:106860000C4B10B51C68D86822681A60536001226E
:106870002275DC60837D4BB9FFF750FF142301467E
:1068800083752046BDE81040FBF732B8FFF754FF90
:106890000146F6E748210020FEE7000070B51B4BDB
:1068A00001630025044686B085620E46586000F0FC
:1068B000AFF804F11003236163614FF0FF33A3616C
:1068C000134BE561D96924600A462B46C4E90823C5
:1068D00004F134010F4A6460A560E562E565802338
:1068E000204600F01DF80123E0600B4A037500927A
:1068F00072680192B268CDE90223084B6846CDE97F
:10690000043500F043F806B070BD00BF4021002000
:1069100048210020749C0060799C006099680060A8
:1069200002228B608A824B621422002308618A75DE
:106930000B62CB61084670478368C168A3F14C02C3
:1069400043F81C2C026943F84C2C426943F8482C4C
:106950000C4A0D4843F82C2C022203F8142C43F85F
:10696000180C0022142003F8120C43F8201C03F822
:10697000132C43F8041C43F8082C43F80C2CA3F107
:1069800028007047011900604821002008B5FFF772
:10699000D3FFBDE80840FFF713BF0000024BDB68E0
:1069A00098610F20FFF70EBF48210020302383F3AA
:1069B0001188FFF7F3BF08B50146302383F3118830
:1069C0000820FFF70FFF002383F3118808BD0000A4
:1069D000054BDB6821B1036098610320FFF702BF1C
:1069E0004FF0FF30704700BF482100200346006889
:1069F00020B100221A608161FFF7E2BE7047EFF319
:106A00000983203383F30988002383F311887047B7
:106A1000302080F3118862B60D4B0E4AD96821F4FC
:106A2000E0610904090C0A43DA60D3F8FC200A4942
:106A300042F08072C3F8FC20084AC2F8B01F116807
:106A400041F0010111602022DA7783F822007047BB
:106A500000ED00E00003FA0555CEACC5001000E0E3
:106A600010B5302383F311880B4B5B6813F400637C
:106A70000FD0EFF30984203C4FF08073E36184F37F
:106A80000988FFF7D9FE10B1044BA36110BD044B78
:106A9000FBE783F31188F9E700ED00E013190060CC
:106AA0001619006008B500F0A2FB054801F05EF879
:106AB00000F00AF8FFF78BFCBDE8084000F002B8D0
:106AC000849C006001F093B901F078BA10B50123FD
:106AD0000446382200F82C3B0021FBF761F8002324
:106AE0006360A36010BD10B53023044683F31188A2
:106AF0002022416000210C30FBF752F8204601F0C3
:106B000085FA02232370002080F3118810BD70B530
:106B10003023044683F31188254601F08DFA0026C0
:106B20000123666005F80C3B2C3455F8043B7BB11F
:106B3000586920B16FF001010C30FFF757FF55F88D
:106B4000043C986920B16FF001010C30FFF74EFF53
:106B5000A54245F8046CE8D1FFF762FE86F3118880
:106B600070BD70B500EB810305465069DA600E46D2
:106B7000144618B110220021FBF712F8A06918B1D1
:106B800010220021FBF70CF831462846BDE8704082
:106B900001F0C8BAF8B5836803F0011304468360B6
:106BA00000F1100500F12C06002755F8043B7BB1DD
:106BB000586920B16FF001010C30FFF717FF55F84D
:106BC000043C986920B16FF001010C30FFF70EFF13
:106BD000B54245F8047CE8D12046BDE8F84001F014
:106BE000E5BAF0B400EB81044789E4680125A469A3
:106BF0008D403D43458123600023A2606360E360D4
:106C0000F0BC01F011BBF0B400EB81040789E4682B
:106C1000012564698D403D43058123600023A26006
:106C20006360E360F0BC01F011BB70472DE9F041F7
:106C30000223002604460370C667866000F10C0537
:106C400000F12C074FF0300855F8043BABB188F346
:106C5000118855F8043C586920B16FF001010C30DF
:106C6000FFF7C4FE55F8043C986920B16FF00101AC
:106C70000C30FFF7BBFE86F31188BD4245F8046C6B
